{
  "_format": "hh-sol-artifact-1",
  "contractName": "SimpleNFT",
  "sourceName": "contracts/SimpleNFT.sol",
  "abi": [
    {
      "inputs": [],
      "stateMutability": "nonpayable",
      "type": "constructor"
    },
    {
      "anonymous": false,
      "inputs": [
        {
          "indexed": true,
          "internalType": "address",
          "name": "owner",
          "type": "address"
        },
        {
          "indexed": true,
          "internalType": "address",
          "name": "approved",
          "type": "address"
        },
        {
          "indexed": true,
          "internalType": "uint256",
          "name": "tokenId",
          "type": "uint256"
        }
      ],
      "name": "Approval",
      "type": "event"
    },
    {
      "anonymous": false,
      "inputs": [
        {
          "indexed": true,
          "internalType": "address",
          "name": "owner",
          "type": "address"
        },
        {
          "indexed": true,
          "internalType": "address",
          "name": "operator",
          "type": "address"
        },
        {
          "indexed": false,
          "internalType": "bool",
          "name": "approved",
          "type": "bool"
        }
      ],
      "name": "ApprovalForAll",
      "type": "event"
    },
    {
      "anonymous": false,
      "inputs": [
        {
          "indexed": true,
          "internalType": "address",
          "name": "previousOwner",
          "type": "address"
        },
        {
          "indexed": true,
          "internalType": "address",
          "name": "newOwner",
          "type": "address"
        }
      ],
      "name": "OwnershipTransferred",
      "type": "event"
    },
    {
      "anonymous": false,
      "inputs": [
        {
          "indexed": true,
          "internalType": "address",
          "name": "from",
          "type": "address"
        },
        {
          "indexed": true,
          "internalType": "address",
          "name": "to",
          "type": "address"
        },
        {
          "indexed": true,
          "internalType": "uint256",
          "name": "tokenId",
          "type": "uint256"
        }
      ],
      "name": "Transfer",
      "type": "event"
    },
    {
      "inputs": [
        {
          "internalType": "address",
          "name": "to",
          "type": "address"
        },
        {
          "internalType": "uint256",
          "name": "tokenId",
          "type": "uint256"
        }
      ],
      "name": "approve",
      "outputs": [],
      "stateMutability": "nonpayable",
      "type": "function"
    },
    {
      "inputs": [
        {
          "internalType": "address",
          "name": "owner",
          "type": "address"
        }
      ],
      "name": "balanceOf",
      "outputs": [
        {
          "internalType": "uint256",
          "name": "",
          "type": "uint256"
        }
      ],
      "stateMutability": "view",
      "type": "function"
    },
    {
      "inputs": [
        {
          "internalType": "uint256",
          "name": "tokenId",
          "type": "uint256"
        }
      ],
      "name": "getApproved",
      "outputs": [
        {
          "internalType": "address",
          "name": "",
          "type": "address"
        }
      ],
      "stateMutability": "view",
      "type": "function"
    },
    {
      "inputs": [
        {
          "internalType": "address",
          "name": "owner",
          "type": "address"
        },
        {
          "internalType": "address",
          "name": "operator",
          "type": "address"
        }
      ],
      "name": "isApprovedForAll",
      "outputs": [
        {
          "internalType": "bool",
          "name": "",
          "type": "bool"
        }
      ],
      "stateMutability": "view",
      "type": "function"
    },
    {
      "inputs": [
        {
          "internalType": "address",
          "name": "to",
          "type": "address"
        },
        {
          "internalType": "string",
          "name": "uri",
          "type": "string"
        }
      ],
      "name": "mint",
      "outputs": [],
      "stateMutability": "nonpayable",
      "type": "function"
    },
    {
      "inputs": [],
      "name": "name",
      "outputs": [
        {
          "internalType": "string",
          "name": "",
          "type": "string"
        }
      ],
      "stateMutability": "view",
      "type": "function"
    },
    {
      "inputs": [],
      "name": "owner",
      "outputs": [
        {
          "internalType": "address",
          "name": "",
          "type": "address"
        }
      ],
      "stateMutability": "view",
      "type": "function"
    },
    {
      "inputs": [
        {
          "internalType": "uint256",
          "name": "tokenId",
          "type": "uint256"
        }
      ],
      "name": "ownerOf",
      "outputs": [
        {
          "internalType": "address",
          "name": "",
          "type": "address"
        }
      ],
      "stateMutability": "view",
      "type": "function"
    },
    {
      "inputs": [],
      "name": "renounceOwnership",
      "outputs": [],
      "stateMutability": "nonpayable",
      "type": "function"
    },
    {
      "inputs": [
        {
          "internalType": "address",
          "name": "from",
          "type": "address"
        },
        {
          "internalType": "address",
          "name": "to",
          "type": "address"
        },
        {
          "internalType": "uint256",
          "name": "tokenId",
          "type": "uint256"
        }
      ],
      "name": "safeTransferFrom",
      "outputs": [],
      "stateMutability": "nonpayable",
      "type": "function"
    },
    {
      "inputs": [
        {
          "internalType": "address",
          "name": "from",
          "type": "address"
        },
        {
          "internalType": "address",
          "name": "to",
          "type": "address"
        },
        {
          "internalType": "uint256",
          "name": "tokenId",
          "type": "uint256"
        },
        {
          "internalType": "bytes",
          "name": "data",
          "type": "bytes"
        }
      ],
      "name": "safeTransferFrom",
      "outputs": [],
      "stateMutability": "nonpayable",
      "type": "function"
    },
    {
      "inputs": [
        {
          "internalType": "address",
          "name": "operator",
          "type": "address"
        },
        {
          "internalType": "bool",
          "name": "approved",
          "type": "bool"
        }
      ],
      "name": "setApprovalForAll",
      "outputs": [],
      "stateMutability": "nonpayable",
      "type": "function"
    },
    {
      "inputs": [
        {
          "internalType": "bytes4",
          "name": "interfaceId",
          "type": "bytes4"
        }
      ],
      "name": "supportsInterface",
      "outputs": [
        {
          "internalType": "bool",
          "name": "",
          "type": "bool"
        }
      ],
      "stateMutability": "view",
      "type": "function"
    },
    {
      "inputs": [],
      "name": "symbol",
      "outputs": [
        {
          "internalType": "string",
          "name": "",
          "type": "string"
        }
      ],
      "stateMutability": "view",
      "type": "function"
    },
    {
      "inputs": [
        {
          "internalType": "uint256",
          "name": "tokenId",
          "type": "uint256"
        }
      ],
      "name": "tokenURI",
      "outputs": [
        {
          "internalType": "string",
          "name": "",
          "type": "string"
        }
      ],
      "stateMutability": "view",
      "type": "function"
    },
    {
      "inputs": [
        {
          "internalType": "address",
          "name": "from",
          "type": "address"
        },
        {
          "internalType": "address",
          "name": "to",
          "type": "address"
        },
        {
          "internalType": "uint256",
          "name": "tokenId",
          "type": "uint256"
        }
      ],
      "name": "transferFrom",
      "outputs": [],
      "stateMutability": "nonpayable",
      "type": "function"
    },
    {
      "inputs": [
        {
          "internalType": "address",
          "name": "newOwner",
          "type": "address"
        }
      ],
      "name": "transferOwnership",
      "outputs": [],
      "stateMutability": "nonpayable",
      "type": "function"
    },
    {
      "inputs": [],
      "name": "withdraw",
      "outputs": [],
      "stateMutability": "payable",
      "type": "function"
    }
  ],
  "bytecode": "0x60806040523480156200001157600080fd5b506040518060400160405280600581526020017f5469746c650000000000000000000000000000000000000000000000000000008152506040518060400160405280600381526020017f544b4e000000000000000000000000000000000000000000000000000000000081525081600090816200008f919062000412565b508060019081620000a1919062000412565b505050620000c4620000b8620000ca60201b60201c565b620000d260201b60201c565b620004f9565b600033905090565b6000600760009054906101000a900473ffffffffffffffffffffffffffffffffffffffff16905081600760006101000a81548173ffffffffffffffffffffffffffffffffffffffff021916908373ffffffffffffffffffffffffffffffffffffffff1602179055508173ffffffffffffffffffffffffffffffffffffffff168173ffffffffffffffffffffffffffffffffffffffff167f8be0079c531659141344cd1fd0a4f28419497f9722a3daafe3b4186f6b6457e060405160405180910390a35050565b600081519050919050565b7f4e487b7100000000000000000000000000000000000000000000000000000000600052604160045260246000fd5b7f4e487b7100000000000000000000000000000000000000000000000000000000600052602260045260246000fd5b600060028204905060018216806200021a57607f821691505b60208210810362000230576200022f620001d2565b5b50919050565b60008190508160005260206000209050919050565b60006020601f8301049050919050565b600082821b905092915050565b6000600883026200029a7fffffffffffffffffffffffffffffffffffffffffffffffffffffffffffffffff826200025b565b620002a686836200025b565b95508019841693508086168417925050509392505050565b6000819050919050565b6000819050919050565b6000620002f3620002ed620002e784620002be565b620002c8565b620002be565b9050919050565b6000819050919050565b6200030f83620002d2565b620003276200031e82620002fa565b84845462000268565b825550505050565b600090565b6200033e6200032f565b6200034b81848462000304565b505050565b5b8181101562000373576200036760008262000334565b60018101905062000351565b5050565b601f821115620003c2576200038c8162000236565b62000397846200024b565b81016020851015620003a7578190505b620003bf620003b6856200024b565b83018262000350565b50505b505050565b600082821c905092915050565b6000620003e760001984600802620003c7565b1980831691505092915050565b6000620004028383620003d4565b9150826002028217905092915050565b6200041d8262000198565b67ffffffffffffffff811115620004395762000438620001a3565b5b62000445825462000201565b6200045282828562000377565b600060209050601f8311600181146200048a576000841562000475578287015190505b620004818582620003f4565b865550620004f1565b601f1984166200049a8662000236565b60005b82811015620004c4578489015182556001820191506020850194506020810190506200049d565b86831015620004e45784890151620004e0601f891682620003d4565b8355505b6001600288020188555050505b505050505050565b612fb880620005096000396000f3fe6080604052600436106101095760003560e01c8063715018a611610095578063b88d4fde11610064578063b88d4fde14610348578063c87b56dd14610371578063d0def521146103ae578063e985e9c5146103d7578063f2fde38b1461041457610109565b8063715018a6146102b25780638da5cb5b146102c957806395d89b41146102f4578063a22cb4651461031f57610109565b806323b872dd116100dc57806323b872dd146101dc5780633ccfd60b1461020557806342842e0e1461020f5780636352211e1461023857806370a082311461027557610109565b806301ffc9a71461010e57806306fdde031461014b578063081812fc14610176578063095ea7b3146101b3575b600080fd5b34801561011a57600080fd5b5061013560048036038101906101309190611bf3565b61043d565b6040516101429190611c3b565b60405180910390f35b34801561015757600080fd5b5061016061051f565b60405161016d9190611ce6565b60405180910390f35b34801561018257600080fd5b5061019d60048036038101906101989190611d3e565b6105b1565b6040516101aa9190611dac565b60405180910390f35b3480156101bf57600080fd5b506101da60048036038101906101d59190611df3565b6105f7565b005b3480156101e857600080fd5b5061020360048036038101906101fe9190611e33565b61070e565b005b61020d61076e565b005b34801561021b57600080fd5b5061023660048036038101906102319190611e33565b6107f6565b005b34801561024457600080fd5b5061025f600480360381019061025a9190611d3e565b610816565b60405161026c9190611dac565b60405180910390f35b34801561028157600080fd5b5061029c60048036038101906102979190611e86565b6108c7565b6040516102a99190611ec2565b60405180910390f35b3480156102be57600080fd5b506102c761097e565b005b3480156102d557600080fd5b506102de610992565b6040516102eb9190611dac565b60405180910390f35b34801561030057600080fd5b506103096109bc565b6040516103169190611ce6565b60405180910390f35b34801561032b57600080fd5b5061034660048036038101906103419190611f09565b610a4e565b005b34801561035457600080fd5b5061036f600480360381019061036a919061207e565b610a64565b005b34801561037d57600080fd5b5061039860048036038101906103939190611d3e565b610ac6565b6040516103a59190611ce6565b60405180910390f35b3480156103ba57600080fd5b506103d560048036038101906103d091906121a2565b610bd8565b005b3480156103e357600080fd5b506103fe60048036038101906103f991906121fe565b610c11565b60405161040b9190611c3b565b60405180910390f35b34801561042057600080fd5b5061043b60048036038101906104369190611e86565b610ca5565b005b60007f80ac58cd000000000000000000000000000000000000000000000000000000007bffffffffffffffffffffffffffffffffffffffffffffffffffffffff1916827bffffffffffffffffffffffffffffffffffffffffffffffffffffffff1916148061050857507f5b5e139f000000000000000000000000000000000000000000000000000000007bffffffffffffffffffffffffffffffffffffffffffffffffffffffff1916827bffffffffffffffffffffffffffffffffffffffffffffffffffffffff1916145b80610518575061051782610d28565b5b9050919050565b60606000805461052e9061226d565b80601f016020809104026020016040519081016040528092919081815260200182805461055a9061226d565b80156105a75780601f1061057c576101008083540402835291602001916105a7565b820191906000526020600020905b81548152906001019060200180831161058a57829003601f168201915b5050505050905090565b60006105bc82610d92565b6004600083815260200190815260200160002060009054906101000a900473ffffffffffffffffffffffffffffffffffffffff169050919050565b600061060282610816565b90508073ffffffffffffffffffffffffffffffffffffffff168373ffffffffffffffffffffffffffffffffffffffff1603610672576040517f08c379a000000000000000000000000000000000000000000000000000000000815260040161066990612310565b60405180910390fd5b8073ffffffffffffffffffffffffffffffffffffffff16610691610ddd565b73ffffffffffffffffffffffffffffffffffffffff1614806106c057506106bf816106ba610ddd565b610c11565b5b6106ff576040517f08c379a00000000000000000000000000000000000000000000000000000000081526004016106f6906123a2565b60405180910390fd5b6107098383610de5565b505050565b61071f610719610ddd565b82610e9e565b61075e576040517f08c379a000000000000000000000000000000000000000000000000000000000815260040161075590612434565b60405180910390fd5b610769838383610f33565b505050565b610776611199565b6000610780610992565b73ffffffffffffffffffffffffffffffffffffffff16476040516107a390612485565b60006040518083038185875af1925050503d80600081146107e0576040519150601f19603f3d011682016040523d82523d6000602084013e6107e5565b606091505b50509050806107f357600080fd5b50565b61081183838360405180602001604052806000815250610a64565b505050565b6000806002600084815260200190815260200160002060009054906101000a900473ffffffffffffffffffffffffffffffffffffffff169050600073ffffffffffffffffffffffffffffffffffffffff168173ffffffffffffffffffffffffffffffffffffffff16036108be576040517f08c379a00000000000000000000000000000000000000000000000000000000081526004016108b5906124e6565b60405180910390fd5b80915050919050565b60008073ffffffffffffffffffffffffffffffffffffffff168273ffffffffffffffffffffffffffffffffffffffff1603610937576040517f08c379a000000000000000000000000000000000000000000000000000000000815260040161092e90612578565b60405180910390fd5b600360008373ffffffffffffffffffffffffffffffffffffffff1673ffffffffffffffffffffffffffffffffffffffff168152602001908152602001600020549050919050565b610986611199565b6109906000611217565b565b6000600760009054906101000a900473ffffffffffffffffffffffffffffffffffffffff16905090565b6060600180546109cb9061226d565b80601f01602080910402602001604051908101604052809291908181526020018280546109f79061226d565b8015610a445780601f10610a1957610100808354040283529160200191610a44565b820191906000526020600020905b815481529060010190602001808311610a2757829003601f168201915b5050505050905090565b610a60610a59610ddd565b83836112dd565b5050565b610a75610a6f610ddd565b83610e9e565b610ab4576040517f08c379a0000000000000000000000000000000000000000000000000000000008152600401610aab90612434565b60405180910390fd5b610ac084848484611449565b50505050565b6060610ad182610d92565b6000600660008481526020019081526020016000208054610af19061226d565b80601f0160208091040260200160405190810160405280929190818152602001828054610b1d9061226d565b8015610b6a5780601f10610b3f57610100808354040283529160200191610b6a565b820191906000526020600020905b815481529060010190602001808311610b4d57829003601f168201915b505050505090506000610b7b6114a5565b90506000815103610b90578192505050610bd3565b600082511115610bc5578082604051602001610bad9291906125d4565b60405160208183030381529060405292505050610bd3565b610bce846114bc565b925050505b919050565b610be0611199565b6000610bec6008611524565b9050610bf86008611532565b610c028382611548565b610c0c8183611566565b505050565b6000600560008473ffffffffffffffffffffffffffffffffffffffff1673ffffffffffffffffffffffffffffffffffffffff16815260200190815260200160002060008373ffffffffffffffffffffffffffffffffffffffff1673ffffffffffffffffffffffffffffffffffffffff16815260200190815260200160002060009054906101000a900460ff16905092915050565b610cad611199565b600073ffffffffffffffffffffffffffffffffffffffff168173ffffffffffffffffffffffffffffffffffffffff1603610d1c576040517f08c379a0000000000000000000000000000000000000000000000000000000008152600401610d139061266a565b60405180910390fd5b610d2581611217565b50565b60007f01ffc9a7000000000000000000000000000000000000000000000000000000007bffffffffffffffffffffffffffffffffffffffffffffffffffffffff1916827bffffffffffffffffffffffffffffffffffffffffffffffffffffffff1916149050919050565b610d9b816115d3565b610dda576040517f08c379a0000000000000000000000000000000000000000000000000000000008152600401610dd1906124e6565b60405180910390fd5b50565b600033905090565b816004600083815260200190815260200160002060006101000a81548173ffffffffffffffffffffffffffffffffffffffff021916908373ffffffffffffffffffffffffffffffffffffffff160217905550808273ffffffffffffffffffffffffffffffffffffffff16610e5883610816565b73ffffffffffffffffffffffffffffffffffffffff167f8c5be1e5ebec7d5bd14f71427d1e84f3dd0314c0f7b2291e5b200ac8c7c3b92560405160405180910390a45050565b600080610eaa83610816565b90508073ffffffffffffffffffffffffffffffffffffffff168473ffffffffffffffffffffffffffffffffffffffff161480610eec5750610eeb8185610c11565b5b80610f2a57508373ffffffffffffffffffffffffffffffffffffffff16610f12846105b1565b73ffffffffffffffffffffffffffffffffffffffff16145b91505092915050565b8273ffffffffffffffffffffffffffffffffffffffff16610f5382610816565b73ffffffffffffffffffffffffffffffffffffffff1614610fa9576040517f08c379a0000000000000000000000000000000000000000000000000000000008152600401610fa0906126fc565b60405180910390fd5b600073ffffffffffffffffffffffffffffffffffffffff168273ffffffffffffffffffffffffffffffffffffffff1603611018576040517f08c379a000000000000000000000000000000000000000000000000000000000815260040161100f9061278e565b60405180910390fd5b61102383838361163f565b61102e600082610de5565b6001600360008573ffffffffffffffffffffffffffffffffffffffff1673ffffffffffffffffffffffffffffffffffffffff168152602001908152602001600020600082825461107e91906127dd565b925050819055506001600360008473ffffffffffffffffffffffffffffffffffffffff1673ffffffffffffffffffffffffffffffffffffffff16815260200190815260200160002060008282546110d59190612811565b92505081905550816002600083815260200190815260200160002060006101000a81548173ffffffffffffffffffffffffffffffffffffffff021916908373ffffffffffffffffffffffffffffffffffffffff160217905550808273ffffffffffffffffffffffffffffffffffffffff168473ffffffffffffffffffffffffffffffffffffffff167fddf252ad1be2c89b69c2b068fc378daa952ba7f163c4a11628f55a4df523b3ef60405160405180910390a4611194838383611644565b505050565b6111a1610ddd565b73ffffffffffffffffffffffffffffffffffffffff166111bf610992565b73ffffffffffffffffffffffffffffffffffffffff1614611215576040517f08c379a000000000000000000000000000000000000000000000000000000000815260040161120c90612891565b60405180910390fd5b565b6000600760009054906101000a900473ffffffffffffffffffffffffffffffffffffffff16905081600760006101000a81548173ffffffffffffffffffffffffffffffffffffffff021916908373ffffffffffffffffffffffffffffffffffffffff1602179055508173ffffffffffffffffffffffffffffffffffffffff168173ffffffffffffffffffffffffffffffffffffffff167f8be0079c531659141344cd1fd0a4f28419497f9722a3daafe3b4186f6b6457e060405160405180910390a35050565b8173ffffffffffffffffffffffffffffffffffffffff168373ffffffffffffffffffffffffffffffffffffffff160361134b576040517f08c379a0000000000000000000000000000000000000000000000000000000008152600401611342906128fd565b60405180910390fd5b80600560008573ffffffffffffffffffffffffffffffffffffffff1673ffffffffffffffffffffffffffffffffffffffff16815260200190815260200160002060008473ffffffffffffffffffffffffffffffffffffffff1673ffffffffffffffffffffffffffffffffffffffff16815260200190815260200160002060006101000a81548160ff0219169083151502179055508173ffffffffffffffffffffffffffffffffffffffff168373ffffffffffffffffffffffffffffffffffffffff167f17307eab39ab6107e8899845ad3d59bd9653f200f220920489ca2b5937696c318360405161143c9190611c3b565b60405180910390a3505050565b611454848484610f33565b61146084848484611649565b61149f576040517f08c379a00000000000000000000000000000000000000000000000000000000081526004016114969061298f565b60405180910390fd5b50505050565b606060405180602001604052806000815250905090565b60606114c782610d92565b60006114d16114a5565b905060008151116114f1576040518060200160405280600081525061151c565b806114fb846117d0565b60405160200161150c9291906125d4565b6040516020818303038152906040525b915050919050565b600081600001549050919050565b6001816000016000828254019250508190555050565b611562828260405180602001604052806000815250611930565b5050565b61156f826115d3565b6115ae576040517f08c379a00000000000000000000000000000000000000000000000000000000081526004016115a590612a21565b60405180910390fd5b806006600084815260200190815260200160002090816115ce9190612bed565b505050565b60008073ffffffffffffffffffffffffffffffffffffffff166002600084815260200190815260200160002060009054906101000a900473ffffffffffffffffffffffffffffffffffffffff1673ffffffffffffffffffffffffffffffffffffffff1614159050919050565b505050565b505050565b600061166a8473ffffffffffffffffffffffffffffffffffffffff1661198b565b156117c3578373ffffffffffffffffffffffffffffffffffffffff1663150b7a02611693610ddd565b8786866040518563ffffffff1660e01b81526004016116b59493929190612d14565b6020604051808303816000875af19250505080156116f157506040513d601f19601f820116820180604052508101906116ee9190612d75565b60015b611773573d8060008114611721576040519150601f19603f3d011682016040523d82523d6000602084013e611726565b606091505b50600081510361176b576040517f08c379a00000000000000000000000000000000000000000000000000000000081526004016117629061298f565b60405180910390fd5b805181602001fd5b63150b7a0260e01b7bffffffffffffffffffffffffffffffffffffffffffffffffffffffff1916817bffffffffffffffffffffffffffffffffffffffffffffffffffffffff1916149150506117c8565b600190505b949350505050565b606060008203611817576040518060400160405280600181526020017f3000000000000000000000000000000000000000000000000000000000000000815250905061192b565b600082905060005b6000821461184957808061183290612da2565b915050600a826118429190612e19565b915061181f565b60008167ffffffffffffffff81111561186557611864611f53565b5b6040519080825280601f01601f1916602001820160405280156118975781602001600182028036833780820191505090505b5090505b60008514611924576001826118b091906127dd565b9150600a856118bf9190612e4a565b60306118cb9190612811565b60f81b8183815181106118e1576118e0612e7b565b5b60200101907effffffffffffffffffffffffffffffffffffffffffffffffffffffffffffff1916908160001a905350600a8561191d9190612e19565b945061189b565b8093505050505b919050565b61193a83836119ae565b6119476000848484611649565b611986576040517f08c379a000000000000000000000000000000000000000000000000000000000815260040161197d9061298f565b60405180910390fd5b505050565b6000808273ffffffffffffffffffffffffffffffffffffffff163b119050919050565b600073ffffffffffffffffffffffffffffffffffffffff168273ffffffffffffffffffffffffffffffffffffffff1603611a1d576040517f08c379a0000000000000000000000000000000000000000000000000000000008152600401611a1490612ef6565b60405180910390fd5b611a26816115d3565b15611a66576040517f08c379a0000000000000000000000000000000000000000000000000000000008152600401611a5d90612f62565b60405180910390fd5b611a726000838361163f565b6001600360008473ffffffffffffffffffffffffffffffffffffffff1673ffffffffffffffffffffffffffffffffffffffff1681526020019081526020016000206000828254611ac29190612811565b92505081905550816002600083815260200190815260200160002060006101000a81548173ffffffffffffffffffffffffffffffffffffffff021916908373ffffffffffffffffffffffffffffffffffffffff160217905550808273ffffffffffffffffffffffffffffffffffffffff16600073ffffffffffffffffffffffffffffffffffffffff167fddf252ad1be2c89b69c2b068fc378daa952ba7f163c4a11628f55a4df523b3ef60405160405180910390a4611b8360008383611644565b5050565b6000604051905090565b600080fd5b600080fd5b60007fffffffff0000000000000000000000000000000000000000000000000000000082169050919050565b611bd081611b9b565b8114611bdb57600080fd5b50565b600081359050611bed81611bc7565b92915050565b600060208284031215611c0957611c08611b91565b5b6000611c1784828501611bde565b91505092915050565b60008115159050919050565b611c3581611c20565b82525050565b6000602082019050611c506000830184611c2c565b92915050565b600081519050919050565b600082825260208201905092915050565b60005b83811015611c90578082015181840152602081019050611c75565b60008484015250505050565b6000601f19601f8301169050919050565b6000611cb882611c56565b611cc28185611c61565b9350611cd2818560208601611c72565b611cdb81611c9c565b840191505092915050565b60006020820190508181036000830152611d008184611cad565b905092915050565b6000819050919050565b611d1b81611d08565b8114611d2657600080fd5b50565b600081359050611d3881611d12565b92915050565b600060208284031215611d5457611d53611b91565b5b6000611d6284828501611d29565b91505092915050565b600073ffffffffffffffffffffffffffffffffffffffff82169050919050565b6000611d9682611d6b565b9050919050565b611da681611d8b565b82525050565b6000602082019050611dc16000830184611d9d565b92915050565b611dd081611d8b565b8114611ddb57600080fd5b50565b600081359050611ded81611dc7565b92915050565b60008060408385031215611e0a57611e09611b91565b5b6000611e1885828601611dde565b9250506020611e2985828601611d29565b9150509250929050565b600080600060608486031215611e4c57611e4b611b91565b5b6000611e5a86828701611dde565b9350506020611e6b86828701611dde565b9250506040611e7c86828701611d29565b9150509250925092565b600060208284031215611e9c57611e9b611b91565b5b6000611eaa84828501611dde565b91505092915050565b611ebc81611d08565b82525050565b6000602082019050611ed76000830184611eb3565b92915050565b611ee681611c20565b8114611ef157600080fd5b50565b600081359050611f0381611edd565b92915050565b60008060408385031215611f2057611f1f611b91565b5b6000611f2e85828601611dde565b9250506020611f3f85828601611ef4565b9150509250929050565b600080fd5b600080fd5b7f4e487b7100000000000000000000000000000000000000000000000000000000600052604160045260246000fd5b611f8b82611c9c565b810181811067ffffffffffffffff82111715611faa57611fa9611f53565b5b80604052505050565b6000611fbd611b87565b9050611fc98282611f82565b919050565b600067ffffffffffffffff821115611fe957611fe8611f53565b5b611ff282611c9c565b9050602081019050919050565b82818337600083830152505050565b600061202161201c84611fce565b611fb3565b90508281526020810184848401111561203d5761203c611f4e565b5b612048848285611fff565b509392505050565b600082601f83011261206557612064611f49565b5b813561207584826020860161200e565b91505092915050565b6000806000806080858703121561209857612097611b91565b5b60006120a687828801611dde565b94505060206120b787828801611dde565b93505060406120c887828801611d29565b925050606085013567ffffffffffffffff8111156120e9576120e8611b96565b5b6120f587828801612050565b91505092959194509250565b600067ffffffffffffffff82111561211c5761211b611f53565b5b61212582611c9c565b9050602081019050919050565b600061214561214084612101565b611fb3565b90508281526020810184848401111561216157612160611f4e565b5b61216c848285611fff565b509392505050565b600082601f83011261218957612188611f49565b5b8135612199848260208601612132565b91505092915050565b600080604083850312156121b9576121b8611b91565b5b60006121c785828601611dde565b925050602083013567ffffffffffffffff8111156121e8576121e7611b96565b5b6121f485828601612174565b9150509250929050565b6000806040838503121561221557612214611b91565b5b600061222385828601611dde565b925050602061223485828601611dde565b9150509250929050565b7f4e487b7100000000000000000000000000000000000000000000000000000000600052602260045260246000fd5b6000600282049050600182168061228557607f821691505b6020821081036122985761229761223e565b5b50919050565b7f4552433732313a20617070726f76616c20746f2063757272656e74206f776e6560008201527f7200000000000000000000000000000000000000000000000000000000000000602082015250565b60006122fa602183611c61565b91506123058261229e565b604082019050919050565b60006020820190508181036000830152612329816122ed565b9050919050565b7f4552433732313a20617070726f76652063616c6c6572206973206e6f7420746f60008201527f6b656e206f776e6572206e6f7220617070726f76656420666f7220616c6c0000602082015250565b600061238c603e83611c61565b915061239782612330565b604082019050919050565b600060208201905081810360008301526123bb8161237f565b9050919050565b7f4552433732313a2063616c6c6572206973206e6f7420746f6b656e206f776e6560008201527f72206e6f7220617070726f766564000000000000000000000000000000000000602082015250565b600061241e602e83611c61565b9150612429826123c2565b604082019050919050565b6000602082019050818103600083015261244d81612411565b9050919050565b600081905092915050565b50565b600061246f600083612454565b915061247a8261245f565b600082019050919050565b600061249082612462565b9150819050919050565b7f4552433732313a20696e76616c696420746f6b656e2049440000000000000000600082015250565b60006124d0601883611c61565b91506124db8261249a565b602082019050919050565b600060208201905081810360008301526124ff816124c3565b9050919050565b7f4552433732313a2061646472657373207a65726f206973206e6f74206120766160008201527f6c6964206f776e65720000000000000000000000000000000000000000000000602082015250565b6000612562602983611c61565b915061256d82612506565b604082019050919050565b6000602082019050818103600083015261259181612555565b9050919050565b600081905092915050565b60006125ae82611c56565b6125b88185612598565b93506125c8818560208601611c72565b80840191505092915050565b60006125e082856125a3565b91506125ec82846125a3565b91508190509392505050565b7f4f776e61626c653a206e6577206f776e657220697320746865207a65726f206160008201527f6464726573730000000000000000000000000000000000000000000000000000602082015250565b6000612654602683611c61565b915061265f826125f8565b604082019050919050565b6000602082019050818103600083015261268381612647565b9050919050565b7f4552433732313a207472616e736665722066726f6d20696e636f72726563742060008201527f6f776e6572000000000000000000000000000000000000000000000000000000602082015250565b60006126e6602583611c61565b91506126f18261268a565b604082019050919050565b60006020820190508181036000830152612715816126d9565b9050919050565b7f4552433732313a207472616e7366657220746f20746865207a65726f2061646460008201527f7265737300000000000000000000000000000000000000000000000000000000602082015250565b6000612778602483611c61565b91506127838261271c565b604082019050919050565b600060208201905081810360008301526127a78161276b565b9050919050565b7f4e487b7100000000000000000000000000000000000000000000000000000000600052601160045260246000fd5b60006127e882611d08565b91506127f383611d08565b925082820390508181111561280b5761280a6127ae565b5b92915050565b600061281c82611d08565b915061282783611d08565b925082820190508082111561283f5761283e6127ae565b5b92915050565b7f4f776e61626c653a2063616c6c6572206973206e6f7420746865206f776e6572600082015250565b600061287b602083611c61565b915061288682612845565b602082019050919050565b600060208201905081810360008301526128aa8161286e565b9050919050565b7f4552433732313a20617070726f766520746f2063616c6c657200000000000000600082015250565b60006128e7601983611c61565b91506128f2826128b1565b602082019050919050565b60006020820190508181036000830152612916816128da565b9050919050565b7f4552433732313a207472616e7366657220746f206e6f6e20455243373231526560008201527f63656976657220696d706c656d656e7465720000000000000000000000000000602082015250565b6000612979603283611c61565b91506129848261291d565b604082019050919050565b600060208201905081810360008301526129a88161296c565b9050919050565b7f45524337323155524953746f726167653a2055524920736574206f66206e6f6e60008201527f6578697374656e7420746f6b656e000000000000000000000000000000000000602082015250565b6000612a0b602e83611c61565b9150612a16826129af565b604082019050919050565b60006020820190508181036000830152612a3a816129fe565b9050919050565b60008190508160005260206000209050919050565b60006020601f8301049050919050565b600082821b905092915050565b600060088302612aa37fffffffffffffffffffffffffffffffffffffffffffffffffffffffffffffffff82612a66565b612aad8683612a66565b95508019841693508086168417925050509392505050565b6000819050919050565b6000612aea612ae5612ae084611d08565b612ac5565b611d08565b9050919050565b6000819050919050565b612b0483612acf565b612b18612b1082612af1565b848454612a73565b825550505050565b600090565b612b2d612b20565b612b38818484612afb565b505050565b5b81811015612b5c57612b51600082612b25565b600181019050612b3e565b5050565b601f821115612ba157612b7281612a41565b612b7b84612a56565b81016020851015612b8a578190505b612b9e612b9685612a56565b830182612b3d565b50505b505050565b600082821c905092915050565b6000612bc460001984600802612ba6565b1980831691505092915050565b6000612bdd8383612bb3565b9150826002028217905092915050565b612bf682611c56565b67ffffffffffffffff811115612c0f57612c0e611f53565b5b612c19825461226d565b612c24828285612b60565b600060209050601f831160018114612c575760008415612c45578287015190505b612c4f8582612bd1565b865550612cb7565b601f198416612c6586612a41565b60005b82811015612c8d57848901518255600182019150602085019450602081019050612c68565b86831015612caa5784890151612ca6601f891682612bb3565b8355505b6001600288020188555050505b505050505050565b600081519050919050565b600082825260208201905092915050565b6000612ce682612cbf565b612cf08185612cca565b9350612d00818560208601611c72565b612d0981611c9c565b840191505092915050565b6000608082019050612d296000830187611d9d565b612d366020830186611d9d565b612d436040830185611eb3565b8181036060830152612d558184612cdb565b905095945050505050565b600081519050612d6f81611bc7565b92915050565b600060208284031215612d8b57612d8a611b91565b5b6000612d9984828501612d60565b91505092915050565b6000612dad82611d08565b91507fffffffffffffffffffffffffffffffffffffffffffffffffffffffffffffffff8203612ddf57612dde6127ae565b5b600182019050919050565b7f4e487b7100000000000000000000000000000000000000000000000000000000600052601260045260246000fd5b6000612e2482611d08565b9150612e2f83611d08565b925082612e3f57612e3e612dea565b5b828204905092915050565b6000612e5582611d08565b9150612e6083611d08565b925082612e7057612e6f612dea565b5b828206905092915050565b7f4e487b7100000000000000000000000000000000000000000000000000000000600052603260045260246000fd5b7f4552433732313a206d696e7420746f20746865207a65726f2061646472657373600082015250565b6000612ee0602083611c61565b9150612eeb82612eaa565b602082019050919050565b60006020820190508181036000830152612f0f81612ed3565b9050919050565b7f4552433732313a20746f6b656e20616c7265616479206d696e74656400000000600082015250565b6000612f4c601c83611c61565b9150612f5782612f16565b602082019050919050565b60006020820190508181036000830152612f7b81612f3f565b905091905056fea26469706673582212206f004f798e3028b8f9e68ba6671c69c9f202b4db958ec7fd7112b6e148dab1f864736f6c63430008110033",
  "linkReferences": {},
  "deployedLinkReferences": {}
}